:100000000C9441250C9472250C9472250C94722545
:100010000C9472250C9472250C9472250C94722504
:100020000C9472250C9472250C9472250C947225F4
:100030000C9472250C94DBF80C9472250C947225A8
:100040000C9472250C94ADB60C9472250C94722508
:100050000C9472250C9472250C9400EE0C94C0FA4A
:100060000C9472250C9473560C9472250C94722582
:100070000C9472250C9472250C9472250C947225A4
:100080000C94EFBF0C9472250C9472250C9472257D
:100090000C9472250C9472250C9472250C94C3E96F
:1000A0000C9472250C9472250C94C1BF0C9472258B
:1000B0000C9472250C9472250C9472250C94722564
:1000C0000C9472250C9472250C9472250C94722554
:1000D0000C9472250C9472250C9472250C94722544
:1000E0000C9472251AF81DF80CF810F816F854F84C
:1000F00021F825F82BF82FF833F839F83DF841F8B6
:1001000054F847F84BF84FF8DCF9E1F9E6F9F0F963
:10011000FAF973FA04FA0CFA14FA1EFA28FA32FA07
:1001200041FA4BFA73FA55FA5FFA69FAD800C60039
:10013000E8000001F000FC00DE00E600D400D6007C
:10014000084AD73B3BCE016E84BCBFFDC12F3D6C3E
:1001500074319ABD56833DDA3D00C77F11BED9E4A4
:10016000BB4C3E916BAAAABE000000803F05A84C84
:10017000CDB2D44EB93836A9020C50B99186880850
:100180003CA6AAAA2ABE000000803F000D94C91810
:100190000D94D8130D94E0130D94DC130D940114F9
:1001A0000D9467120D9470100D94D8180D94DB18EF
:1001B0000D94E3180D942D0A0D9466330D94D51803
:1001C0000D94FC130D94A60F0D94CB270D94EF18EE
:1001D0000D94CC180D9462120D940B140D94F4111F
:1001E0000D94D2180D940E3B0D94E4130D948F0FC3
:1001F0000D945D120D94780F0D94DE180D94061475
:100200000D94CF184E414E494E495459494E46CD52
:10021000CCCC3D0AD7233C17B7D13877CC2B3295BD
:1002200095E6241FB14F0A000020410000C842009B
:10023000401C4620BCBE4CCA1B0E5AAEC59D744322
:100240004F4D4D554E49434154494F4E004452592C
:1002500052554E004552524F525300494E464F00A0
:100260004543484F0047322F473320626164207076
:100270006172616D65746572730A005761727465AD
:100280006E2E2E2E00202844525952554E290047DA
:100290003239204175746F20426564204C65766563
:1002A0006C696E67003F20284C2C522C462C42294A
:1002B000206F7574206F6620626F756E64732E0AEE
:1002C000003F2856296572626F7365206C657665FC
:1002D0006C20697320696D706C61757369626C65FF
:1002E0002028302D34292E0A00426164205A2076BD
:1002F000616C75650A004E6F2062696C696E65619C
:100300007220677269640A00205A3A200020593A24
:10031000200042656420583A20004D6573682070C3
:100320006F696E742063616E6E6F742062652072F7
:1003300065736F6C7665640A0046696C6520646558
:100340006C657465643A0044656C6574696F6E2011
:100350006661696C65642C2046696C653A20006FA3
:1003600070656E206661696C65642C2046696C65F9
:100370003A20005072696E742074696D653A2000ED
:1003800050726F7465637465642050696E0A00462C
:10039000696C616D656E7420757365643A200053F5
:1003A000746174733A20002C204C6F6E676573740F
:1003B000206A6F623A2000546F74616C2074696D1A
:1003C000653A200053746174733A20002C20466112
:1003D000696C65643A20002C2046696E6973686513
:1003E000643A20005072696E74733A20005374614D
:1003F00074733A200060025B0254024D023F026FA8
:1004000066660044454255473A00414247454252DC
:100410004F4348454E00544845524D414C5F505261
:100420004F54454354494F4E004155544F52455047
:100430004F52545F53445F53544154555300454DFC
:10044000455247454E43595F504152534552004330
:100450004153455F4C494748545F425249474854CD
:100460004E45535300544F47474C455F4C4947480E
:10047000545300534F4654574152455F504F5745D0
:1004800052004255494C445F50455243454E54003A
:100490004C4556454C494E475F44415441005A5FD4
:1004A00050524F4245004155544F4C4556454C0023
:1004B0005052494E545F4A4F420050524F475245A6
:1004C0005353004155544F5245504F52545F544579
:1004D0004D5000564F4C554D4554524943004545EB
:1004E00050524F4D0053455249414C5F584F4E5F5B
:1004F000584F4646004649524D574152455F4E417E
:100500004D453A4D61726C696E2062756766697817
:100510002D312E312E782028476974687562292084
:10052000534F555243455F434F44455F55524C3AF4
:1005300068747470733A2F2F6769746875622E63DC
:100540006F6D2F556C74696D616B65722F4D6172A3
:100550006C696E2050524F544F434F4C5F5645527A
:1005600053494F4E3A312E30204D414348494E4574
:100570005F545950453A4475706C696361746F7289
:1005800020362045585452554445525F434F554EEE
:10059000543A3120555549443A63656465326132B5
:1005A000662D343161322D343734382D3962313291
:1005B0002D6335356336326633363766660A002F6B
:1005C0002F20007A5F6D696E3A2000795F6D696E49
:1005D0003A2000785F6D696E3A20005265706F7244
:1005E00074696E6720656E6473746F7020737461D4
:1005F0007475730A00205400205200416363656CD7
:1006000065726174696F6E3A2050005741524E49CD
:100610004E4721204C6F77205A204A65726B206D1F
:100620006179206C65616420746F20756E77616EEE
:10063000746564207061757365732E0A00486F6D70
:10064000657665727361747A20616B7469760045B2
:1006500072723A20546F6F206661722100546F6F7E
:10066000206661722066726F6D20726566657265C4
:100670006E636520706F696E740A00205A002059FD
:1006800000580020204D61783A2000205A0020595F
:1006900000580020204D696E3A200045696E0041E7
:1006A000757300536F667420656E6473746F707336
:1006B0003A200020466C6F773A2000000119171B82
:1006C00016FFFFFFFF20211F1AFFFFFFFF23242239
:1006D0001DFFFFFFFFFFFFFF0407FFFFFF2A2B2582
:1006E000FFFFFF044002FF3E206F7574206F6620FD
:1006F00072616E67650A00536572766F20003A205A
:100700000020536572766F2000496E76616C6964D3
:100710002065787472756465720A004D657368208F
:10072000706F696E742063616E6E6F7420626520F5
:100730007265736F6C7665640A004D3432312069DE
:100740006E636F727265637420706172616D65743F
:1007500065722075736167650A00454550524F4DBB
:10076000204F4B0A004163746976652045787472A6
:10077000756465723A2000496E76616C6964206523
:10078000787472756465720A002569730025696D55
:1007900020256973002569682025696D2025697306
:1007A00000256964202569682025696D2025697305
:1007B0000025697920256964202569682025696DEF
:1007C00020256973004E6F20436865636B73756DF8
:1007D0002077697468206C696E65206E756D62653E
:1007E000722C204C617374204C696E653A20004174
:1007F00042474542524F4348454E00414E474548C7
:10080000414C54454E005072696E74657220737489
:100810006F707065642064756520746F20657272F6
:100820006F72732E20466978207468652065727235
:100830006F7220616E6420757365204D39393920DF
:10084000746F20726573746172742E202854656D04
:100850007065726174757265206973207265736565
:10086000742E20536574206974206166746572204B
:1008700072657374617274696E67290A004E6F2025
:10088000436865636B73756D2077697468206C6964
:100890006E65206E756D6265722C204C61737420DC
:1008A0004C696E653A2000636865636B73756D20F3
:1008B0006D69736D617463682C204C617374204C96
:1008C000696E653A20004C696E65204E756D6265F3
:1008D00072206973206E6F74204C617374204C69B0
:1008E0006E65204E756D6265722B312C204C6173E4
:1008F00074204C696E653A20004D313130004D3323
:10090000310053442072656164206572726F720A0F
:10091000004D30205331383030004265656E6465DB
:10092000746520447275636B6500446F6E6520705A
:1009300072696E74696E672066696C650A00204989
:100940006E76616C69642065787472756465722076
:10095000000000000000000000000000000000484F
:10096000430000484300002A43414E474548414C5C
:1009700054454E005072696E7465722073746F70C6
:100980007065642064756520746F206572726F7283
:10099000732E2046697820746865206572726F72C4
:1009A00020616E6420757365204D39393920746F6C
:1009B00020726573746172742E202854656D7065A1
:1009C0007261747572652069732072657365742E27
:1009D00020536574206974206166746572207265A5
:1009E0007374617274696E67290A0053544F502002
:1009F00063616C6C65642062656361757365206F0B
:100A00006620424C546F756368206572726F722065
:100A10002D20726573746172742077697468204D3B
:100A20003939390A0042696C696E656172204C651A
:100A300076656C696E6720477269643A0A0057618F
:100A400072746520617566204E75747A6572004D0A
:100A50006F746F72656E2065696E67657363686138
:100A60006C74657400456E642066696C65206C6901
:100A700073740A00426567696E2066696C65206C54
:100A80006973740A00286E6F2066696C65290053CB
:100A900044207072696E74696E6720627974652093
:100AA000004E6F74205344207072696E74696E67D3
:100AB0000A0043757272656E742066696C653A202F
:100AC000005374616E646172642044657669617478
:100AD000696F6E3A20002052616E67653A200020EF
:100AE0004D61783A2000204D696E3A20004D6561D5
:100AF0006E3A200046696E6973686564210A0020B9
:100B000072616E67653A2000206D61783A2000209E
:100B10006D696E3A2000207369676D613A2000208C
:100B20006D65616E3A20003A207A3A2000206F66A7
:100B30002000205A00205900205800476F696E6736
:100B400020746F3A00436C6F636B776973650A00BA
:100B5000436F756E7465722D00204469726563740D
:100B6000696F6E3A2000202020616E676C653A2024
:100B7000005374617274696E672072616469757381
:100B80003A2000506F736974696F6E696E672074E4
:100B900068652070726F62652E2E2E0A003F4E75BA
:100BA0006D626572206F66206C65677320696E20C8
:100BB0006D6F76656D656E74206E6F7420706C61FC
:100BC000757369626C652028302D3135292E0A0035
:100BD0003F2028582C5929206F7574206F66206299
:100BE0006F756E64732E0A003F53616D706C6520E3
:100BF00073697A65206E6F7420706C6175736962B9
:100C00006C652028342D3530292E0A004D343820CB
:100C10005A2D50726F626520526570656174616211
:100C2000696C69747920546573740A003F285629E9
:100C30006572626F7365206C6576656C20697320E0
:100C4000696D706C61757369626C652028302D3434
:100C5000292E0A006F6B0020573A004520436F6F22
:100C60006C696E672E2E2E004520457874722E20FA
:100C70006865697A742E2E2E0020573A004265640A
:100C800020636F6F6C696E672E2E2E004265747440
:100C9000206865697A742E2E2E004D313133205331
:100CA000004D31343520533C696E6465783E206FC9
:100CB0007574206F662072616E67652028302D3153
:100CC000290A004475706C696361746F7220362064
:100CD0004175732E00205A3A0020593A0020436F84
:100CE000756E7420583A0020453A00205A3A002088
:100CF000593A00583A003A004361703A0020746F44
:100D00006F206C6F6E6720657874727573696F6E93
:100D10002070726576656E7465640A0020636F6C7E
:100D20006420657874727573696F6E207072657671
:100D3000656E7465640A00627573793A2070617536
:100D400073656420666F7220696E7075740A006244
:100D50007573793A2070617573656420666F7220CF
:100D6000757365720A00627573793A2070726F63E9
:100D7000657373696E670A004142474542524F43AB
:100D800048454E004B494C4C2063617573656420A7
:100D9000627920746F6F206D75636820696E61637E
:100DA000746976652074696D65202D206375727293
:100DB000656E7420636F6D6D616E643A20004269E8
:100DC00074746520526573657474656E0044525581
:100DD000434B45522053544F5050005072696E742B
:100DE00065722068616C7465642E206B696C6C2878
:100DF000292063616C6C6564210A00656E717565FC
:100E00007565696E6720220020643A0020693A0007
:100E100020703A0000000000000000000000000008
:100E20005761726E696E673A20486F6D696E672010
:100E300042756D702044697669736F72203C203171
:100E40000A000202040000A0400000A040000000D0
:100E5000404572726F722077726974696E67207490
:100E60006F20454550524F4D210A00454550524F85
:100E70004D206461746173697A65206572726F7266
:100E80002E0A00290A002062797465733B20637280
:100E900063200053657474696E67732053746F72B6
:100EA0006564202800290A002062797465733B205C
:100EB00063726320002073746F72656420736574BD
:100EC00074696E67732072657472696576656420F3
:100ED0002800202863616C63756C61746564292146
:100EE0000A0020213D2000454550524F4D204352DD
:100EF00043206D69736D61746368202D20287374BD
:100F00006F7265642920002053697A653A20004990
:100F10006E6465783A2000204D61726C696E3D56B2
:100F20003534290A0028454550524F4D3D0045456E
:100F300050524F4D2076657273696F6E206D6973E4
:100F40006D61746368200048617264636F646564F6
:100F50002044656661756C742053657474696E67AE
:100F600073204C6F616465640A00B80B0000B80B15
:100F7000000064000000F40100000000964300003F
:100F800096430000A0400000C8413914A042391423
:100F9000A042713DC8433333C6423A0A0020286D4F
:100FA0006D290020204D36303320002055004C00A4
:100FB00046696C616D656E74206C6F61642F756E2F
:100FC0006C6F6164206C656E677468733A0A002008
:100FD0004500205A0020204D3930372058005374E6
:100FE0006570706572206D6F746F722063757272B8
:100FF000656E74733A0A0020204D393030204B0062
:101000004C696E65617220416476616E63653A0A6F
:101010000020204D383531205A005A2D50726F6211
:1010200065204F66667365740020440020490020E7
:10103000204D33303420500020440020490020202F
:101040004D33303120500050494420736574746929
:101050006E67733A0A0020460020420020480020B4
:10106000204D3134352053004D6174657269616CD7
:101070002068656174757020706172616D6574655A
:1010800072733A0A00205A00204A00202047323961
:101090002057204900205A0020204D343230205360
:1010A000004175746F20426564204C6576656C69FB
:1010B0006E673A0A00205A0020590020204D323035
:1010C00036205800486F6D65206F66667365743A08
:1010D0000A00204500205A002059002058002042D4
:1010E0000020540020204D323035205300416476DA
:1010F000616E6365643A20533C6D696E5F66656539
:1011000064726174653E20543C6D696E5F747261F7
:1011100076656C5F66656564726174653E20423C0D
:101120006D696E5F7365676D656E745F74696D651B
:101130005F75733E20583C6D61785F78795F6A65B2
:10114000726B3E205A3C6D61785F7A5F6A65726BA4
:101150003E20453C6D61785F655F6A65726B3E0A53
:101160000020540020520020204D32303420500006
:10117000416363656C65726174696F6E2028756E7A
:101180006974732F7332293A20503C7072696E74FF
:101190005F616363656C3E20523C7265747261638B
:1011A000745F616363656C3E20543C747261766564
:1011B0006C5F616363656C3E0A00204500205A0045
:1011C00020590020204D3230312058004D6178697F
:1011D0006D756D20416363656C65726174696F6ED6
:1011E0002028756E6974732F7332293A0A002045DE
:1011F00000205A0020590020204D32303320580062
:101200004D6178696D756D206665656472617465A0
:10121000732028756E6974732F73293A0A0020456C
:1012200000205A0020590020204D39322058005308
:10123000746570732070657220756E69743A0A0067
:1012400020204D3230302044300A0020204D3230F2
:10125000302044002044697361626C65640A004672
:10126000696C616D656E742073657474696E677303
:101270003A0020204D3134392043203B20556E69FF
:10128000747320696E2043656C736975730A00205E
:1012900020473231202020203B00417573004569F2
:1012A0006E0042656C6575636874756E67004865AD
:1012B0006C6C69676B6569740048656C6C69676B19
:1012C0006569740048617570746D656EC3BC0042D9
:1012D0004C546F7563682065696E66616872656EEF
:1012E000004D3238302050302053393000424C54B9
:1012F0006F7563682061757366616872656E004D15
:101300003238302050302053313000424C546F7509
:1013100063682054657374004D323830205030209B
:101320005331323000424C546F75636820526573FC
:101330006574004D32383020503020533136300043
:1013400048617570746D656EC3BC00447275636BE3
:10135000206162676562726F6368656E004B6569E4
:101360006E652053442D4B617274650053442D4BC0
:10137000617274650053442D447275636B20416241
:1013800062727563680053442D447275636B204626
:101390006F72747365747A756E6700C39C62657250
:1013A0002064656E20447275636B65720053442D32
:1013B000447275636B2050617573650045696E7387
:1013C00074656C6C756E67656E00566F72626572DF
:1013D000656974756E67004A757374696572756EB8
:1013E000670042656C6575636874756E6700496E69
:1013F000666F004261627973746570205A004669B5
:101400006C616D656E74207765636873656C6E00E2
:1014100046696C616D656E74207765636873656C91
:101420006E004D3630302042300042616279737474
:101430006570205A00466C7573737261746500465E
:101440006C75737372617465004CC3BC66746572AD
:10145000004CC3BC667465720042657474004265DA
:1014600074740044C3BC73650044C3BC736500411D
:101470007573626C656E6468C3B6686500417573A8
:10148000626C656E6468C3B66865004765736368BF
:10149000772E004765736368772E00486175707416
:1014A0006D656EC3BC004500450045005A005A00FA
:1014B0005A0058590058590058590045696E7374BC
:1014C000656C6C756E67656E00566F72686572202C
:1014D00025732573257320686F6D656E0020686F16
:1014E0006D656E0A005A0059005800566F726865A3
:1014F00072200053442063617264206F6B0A006F96
:1015000070656E526F6F74206661696C65640A0065
:10151000766F6C756D652E696E6974206661696C95
:1015200065640A00534420696E6974206661696CC1
:101530000A0057726974696E6720746F2066696C5F
:10154000653A20006F70656E206661696C65642C79
:101550002046696C653A20006F70656E206661698F
:101560006C65642C2046696C653A200046696C65A0
:101570002073656C65637465640A002053697A653D
:101580003A200046696C65206F70656E65643A208C
:10159000006F70656E206661696C65642C20466919
:1015A0006C653A20002066696C653A2000646F69BA
:1015B0006E67006672657368004E6F772000454E57
:1015C0004420535542524F5554494E450A0022205B
:1015D000706F73002220706172656E743A2200533E
:1015E0005542524F5554494E452043414C4C20746E
:1015F00061726765743A22004142474542524F4347
:1016000048454E00747279696E6720746F2063617B
:101610006C6C207375622D67636F64652066696CFE
:101620006573207769746820746F6F206D616E79BF
:10163000206C6576656C732E204D4158206C657664
:10164000656C2069733A004572726F723A004142CC
:10165000474542524F4348454E00202D20496E7663
:10166000616C6964206578747275646572206E754A
:101670006D62657220210A001FFFFFFFFFFFFF6000
:101680000000000001FF400000000000FF8000009B
:101690000000007F83CF00000C303F87FF80000CEC
:1016A000301F867980000C000F8C30C7838C30E7A8
:1016B0008C30CFC7CC31F38C30DCECEC33B98C30D0
:1016C000D86C6C33198C30D06C0C33198C30D86CCE
:1016D0000C33198C30DC6C0E3B198C30CF7C079F9F
:1016E000198C30C77C038F19400000000000026095
:1016F0000000000000061FFFFFFFFFFFF820205042
:101700006C616E6E6572427566666572427974656B
:10171000733A20002046726565204D656D6F7279C1
:101720003A2000436F6D70696C65643A204D6179B1
:1017300020313520323031380A00207C2041757448
:10174000686F723A2028526F62204D656E646F6E2A
:101750002C2064656661756C7420636F6E666967C2
:10176000290A00323031382D30312D323000204CF2
:1017700061737420557064617465643A2000627509
:10178000676669782D312E312E780A004D61726CB2
:10179000696E0020536F66747761726520526573BD
:1017A00065740A00205761746368646F672052652E
:1017B0007365740A002042726F776E206F75742013
:1017C00052657365740A002045787465726E616CA9
:1017D0002052657365740A00506F77657255700A00
:1017E0000073746172740A006175746F25692E67E5
:1017F000006572726F722077726974696E67207407
:101800006F2066696C650A00456E6473746F707052
:1018100020256320256320256320256300205A3A74
:101820000020593A0020583A00656E6473746F7056
:1018300073206869743A2000446F6E652073617686
:10184000696E672066696C652E0A004D3239005357
:10185000442D4B6172746520656E746665726E749A
:101860000053442D4B617274652065726B616E6E1E
:10187000740000060900FE06018902FE20FFFE0733
:10188000FE06FE00000006000701060606020080B4
:101890008080800080030303060103A0A0A0050749
:1018A000070600FF5050F850F8505005090906008F
:1018B000FE2070A8A07028A870200608080600FF67
:1018C00040A84810204854080507070600FF60900C
:1018D00090609890680103030602038080800207ED
:1018E000070602FF408080808080400207070602D2
:1018F000FF804040404040800505050600008850BC
:10190000F850880505050600002020F82020020474
:10191000040602FEC0404080050101060002F802F4
:101920000202060200C0C0040606060100101020D4
:10193000408080040606060100609090909060034D
:10194000060606010040C0404040E00406060601CD
:10195000006090102040F0040606060100F02060B0
:101960001010E005060606000010305090F8100434
:101970000606060100F080E01010E00406060601ED
:10198000006080E0909060040606060100F01010F0
:1019900020404004060606010060906090906004BC
:1019A00006060601006090907010600205050602B0
:1019B00000C0C000C0C00207070602FEC0C000C0D1
:1019C000404080050505060000186080601805038A
:1019D00003060001F800F8050505060000C0300800
:1019E00030C0040707060100609010604000400509
:1019F00006060600007090A8B08070050606060076
:101A000000205088F88888050606060000F088F057
:101A10008888F004060606010060908080906004CB
:101A20000606060100E090909090E004060606018C
:101A300000F080E08080F0040606060100F080E0FF
:101A4000808080040606060100609080B0906004EB
:101A500006060601009090F090909003060606019D
:101A600000E040404040E005060606000038101047
:101A700010906004060606010090A0C0A09090049B
:101A800006060601008080808080F00506060600BC
:101A90000088D8A8A8888804060606010090D0B05F
:101AA000909090050606060000708888888870046B
:101AB0000606060100E09090E0808004070706011A
:101AC000FF609090D0B06010040606060100E09020
:101AD00090E090900406060601006090402090601F
:101AE000050606060000F820202020200406060631
:101AF000010090909090906004060606010090907E
:101B000090F060600506060600008888A8A8D888BE
:101B100005060606000088502020508805060606A7
:101B20000000888850202020040606060100F010DE
:101B3000204080F0030606060100E080808080E0FF
:101B400004060606010080804020101003060606E9
:101B50000100E020202020E00503030600032050C0
:101B6000880501010600FEF8020202060204804018
:101B7000040404060100709090700406060601003B
:101B80008080E09090E00404040601007080807082
:101B900004060606010010107090907004040406FC
:101BA000010060B0C070040606060100205040E04D
:101BB00040400406060601FE609090701060040626
:101BC000060601008080E090909003060606010062
:101BD0004000C04040E00308080601FE20006020ED
:101BE0002020A0400406060601008080A0C0A0902E
:101BF000030606060100C040404040E0050404061C
:101C00000000D0A8A888040404060100E090909089
:101C1000040404060100609090600406060601FEBC
:101C2000E09090E080800406060601FE70909070BF
:101C30001010040404060100A0D0808004040406EF
:101C4000010070C030E00406060601004040E0409C
:101C500050200404040601009090907004040406CF
:101C600001009090606005040406000088A8A85058
:101C7000040404060100906060900406060601FE5C
:101C8000909090709060040404060100F02040F0F1
:101C9000030707060100204040804040200107075D
:101CA0000602FF8080808080808003070706010095
:101CB0008040402040408004020206010350A0FF03
:101CC000FFFFFFFFFFFFFFFFFFFFFFFFFFFFFFFF24
:101CD000FFFFFFFFFFFFFFFFFFFFFFFFFFFFFFFF14
:101CE0000000000600070106060602008000808052
:101CF00080800406060601FF2070A0A07020050762
:101D0000070600FF304840F04040F8050505060092
:101D100000A8508850A80506060600008850F82044
:101D2000F8200107070602FF808080008080800481
:101D300007070601FF708060906010E00301010654
:101D40000105A0060707060000788494A49484780F
:101D500003050506010160A06000E0050505060019
:101D6000002850A05028040303060100F0101004BE
:101D70000101060102F00607070600007884B4A4FA
:101D8000A48478040101060105F00403030601029E
:101D90006090600507070600FF2020F8202000F86B
:101DA00003050506010140A02040E00305050601EA
:101DB00001C0204020C00202020602044080040547
:101DC000050601FF9090B0D0800506060600007859
:101DD000E8E86828280101010602028002020206E2
:101DE00002FE408003050506010140C04040E003BB
:101DF000050506010140A04000E0050505060000BC
:101E0000A0502850A00508080600FF40C0405070B0
:101E10003078100508080600FF40C04050680810E0
:101E2000380508080600FFC0204030F03078100464
:101E30000707060100200020608090600507070664
:101E40000000402020507088880507070600001019
:101E50002020507088880507070600002050205079
:101E60007088880507070600002850205070888871
:101E700005070706000050002050708888050707F6
:101E800006000020502050708888050606060000D5
:101E900078A0F0A0A0B80408080601FE6090808039
:101EA000906020400407070601004020F080E08099
:101EB000F00407070601002040F080E080F00407EE
:101EC000070601002050F080E080F00407070601BB
:101ED000005000F080E080F003070706010080401A
:101EE000E0404040E00307070601002040E040409A
:101EF00040E003070706010040A0E0404040E00347
:101F00000707060100A000E0404040E00506060685
:101F100000007048E848487004070706010050A018
:101F200090D0B09090040707060100402060909088
:101F300090600407070601002040609090906004C4
:101F40000707060100205060909090600407070684
:101F5000010050A0609090906004070706010050B7
:101F600000609090906005050506000088502050A4
:101F7000880408080601FF1070B0B0D0D0E08004DB
:101F80000707060100402090909090600407070624
:101F90000100204090909090600407070601002007
:101FA00050909090906004070706010050009090B8
:101FB0009090600507070600001020885020202020
:101FC00004060606010080E09090E0800406060604
:101FD00001006090A0A090A0040707060100402027
:101FE0000070909070040707060100204000709078
:101FF0009070040707060100205000709090700454
:10200000070706010050A0007090907004060606B5
:1020100001005000709090700407070601002050E6
:10202000207090907005040406000070A8B0780439
:1020300006060601FE708080702040040707060136
:102040000040200060B0C070040707060100204077
:102050000060B0C07004070706010020500060B0A7
:10206000C070040606060100500060B0C07003078F
:1020700007060100804000C04040E003070706015A
:1020800000204000C04040E003070706010040A0D8
:1020900000C04040E0030606060100A000C040402A
:1020A000E00407070601003060107090906004079C
:1020B0000706010050A000E0909090040707060179
:1020C0000040200060909060040707060100204057
:1020D00000609090600407070601002050006090A7
:1020E000906004070706010050A000609090600413
:1020F0000606060100500060909060050505060088
:10210000002000F8002004040406010070B0D0E0B4
:102110000407070601004020009090907004070714
:10212000060100204000909090700407070601000F
:102130002050009090907004060606010050009018
:102140009090700409090601FE2040009090907064
:1021500090600408080601FE8080E09090E0808096
:102160000408080601FE50009090907090604D6544
:10217000687220656E746C656572656E0044727578
:10218000636B652077656974657200464F525453DE
:102190002E204F5054494F4E454E3A00202044C304
:1021A000BC73653A200046696C616D656E74776535
:1021B000636873656C730053746172742064657333
:1021C000005761727465206175662064656E002039
:1021D0002044C3BC73653A20006465732046696C73
:1021E000616D656E74732E2E2E0048657261757375
:1021F0006E61686D65005761727465206175660077
:10220000202044C3BC73653A2000200042697474E6
:10221000652077617274656E2E2E2E0044C3BC73E8
:1022200065206865697A74206175662E2E2E0020FF
:102230002044C3BC73653A2000200044C3BC7365CE
:10224000206175667A756865697A656E2E004B6ED9
:102250006F7066206472C3BC636B656E20756D0021
:10226000202044C3BC73653A20006472C3BC636B16
:10227000656E2E2E2E00756E64204B6E6F7066009C
:1022800046696C616D656E742065696E6C65676525
:102290006E00202044C3BC73653A200046696C611F
:1022A0006D656E7473004C6164656E2064657300C7
:1022B00057617274652061756600202044C3BC7349
:1022C000653A200046696C616D656E747300456EF9
:1022D000746C656572656E20646573005761727415
:1022E000652061756600447275636B65732E2E2ED2
:1022F00000466F72747365747A756E6720646573D7
:102300000057617274652061756600566F72772E92
:1023100020504C4120457874722E00566F72772EF3
:1023200020504C41204265747400566F7277C3A4EC
:10233000726D656E20504C4100566F726265726519
:102340006974756E6700566F72772E204142532074
:10235000457874722E00566F72772E2041425320BA
:102360004265747400566F7277C3A4726D656E20F7
:1023700041425300566F72626572656974756E678B
:10238000005A7572C3BC636B004EC3A46368737458
:10239000652045636B65004D343238004D3238306E
:1023A000205030205331363000424C546F756368F2
:1023B0002054657374004D32383020503020533132
:1023C000323000566F7277C3A4726D656E20414241
:1023D0005300566F7277C3A4726D656E20504C41E6
:1023E0000041626BC3BC686C656E0046696C616DD0
:1023F000656E74207765636873656C6E0046696C02
:10240000616D656E74207765636873656C6E004DF1
:10241000363030204230004D6F746F72656E20642C
:1024200065616B746976696572656E004D3834005C
:102430005365747A6520486F6D6576657273617453
:102440007A00424C546F756368205265736574005E
:1024500045636B656E206E6976656C6C6965726547
:102460006E00417573626C656E6468C3B668650022
:10247000417573626C656E6468C3B66865004175CA
:10248000730045696E0042657474204E6976656C10
:102490006C696572756E670042657474206E69764A
:1024A000656C6C696572656E004732380A4732396F
:1024B00000486F6D65205A00473238205A00486F37
:1024C0006D65205900473238205900486F6D6520EE
:1024D0005800473238205800486F6D650047323841
:1024E000004265776567656E0048617570746D655B
:1024F0006EC3BC0025753A25303275002530327523
:102500003A253032750025756420253032753A251C
:10251000303275005A0059005800092000000000B0
:102520000000000000000000003FFFF0000000007D
:1025300000000000000000003800700000000000F3
:102540000000000000000030FC300000000000002F
:1025500000000000000020FC10000000000000004F
:1025600000000000002078100000000000000000C3
:1025700000000000203010000000000000000000FB
:102580000000002C00D03FC0000000000000002030
:1025900082002E31D07FE0000000000000001041DA
:1025A000002F7BD07FE00000000000000010410001
:1025B0002F7BD07FE0000000000000002082002E72
:1025C00031D03FC0000000000000004104002C009A
:1025D000D03FC00000000000000082080020301042
:1025E0007FE0000000000000008208002078107FDB
:1025F000E00000000000000041040020FC107FE02B
:102600000000000000000020820030FC301F80002D
:102610000000000000000000003800700F00000003
:102620000000000000FFFFC03FFFF00600000000B8
:1026300000000000FFFFC0000000000000000000DC
:102640000000000000003FFFF0000000000000005C
:1026500000000000003800700000000000000000D2
:102660000000000031863000000000000000000083
:1026700000000023871000000000000000000000A0
:10268000000027879000000000000000000000000C
:10269000002F87D0000000000000000000000000B4
:1026A0002F03D03FC0000000000000002082002067
:1026B00030107FE000000000000000104100207892
:1026C000107FE000000000000000104100207810A2
:1026D0007FE0000000000000002082002030103F5A
:1026E000C0000000000000004104002F03D03FC0E4
:1026F000000000000000008208002F87D07FE0006B
:102700000000000000008208002787907FE00000A2
:1027100000000000004104002387107FE00000005B
:10272000000000002082003186301F800000000081
:102730000000000000003800700F000000000000E2
:102740000000FFFFC03FFFF0060000000000000097
:1027500000FFFFC00000004475706C696361746F16
:1027600072203620626572656974005072696E74F9
:10277000696E672E2E2E00447275636B2070617532
:1027800073696572740000060900FE000000000015
:1027900001090008FE000005080806000040F0C816
:1027A0008888987810050808060000C0F88888888E
:1027B0008888F80505050600012030F83020050856
:1027C000080600002070F820202020E005090906F6
:1027D00000FF2070A8A8B8888870200509090600A5
:1027E000FFE080C0B0A8283028280509090600FFAE
:1027F000F8A88888888888A8F8050A0A0600FE20B4
:102800005050505088A8A888700303030600034066
:10281000A04000060900FE070192032120FFFF08E7
:10282000FF07FF0000000600000107070602008006
:10283000808080800080030202060105A0A00507B9
:10284000070600005050F850F850500507070600E2
:10285000002078A07028F020050707060000C0C8F7
:1028600010204098180507070600006090A040A8B7
:102870009068020303060104C040800307070601B5
:102880000020408080804020030707060100804030
:10289000202020408005050506000120A870A82002
:1028A0000505050600012020F8202002030306028A
:1028B000FFC04080050101060003F8020202060283
:1028C00000C0C0050505060001081020408005076E
:1028D000070600007088888888887003070706014B
:1028E0000040C040404040E00507070600007088F7
:1028F00008708080F8050707060000F8102010080F
:1029000008F005070706000010305090F810100579
:102910000707060000F880F008088870050707061A
:102920000000708080F0888870050707060000F8B6
:1029300008102020202005070706000070888870F6
:102940008888700507070600007088887808087076
:10295000020505060200C0C000C0C002060606024D
:10296000FFC0C000C04080040707060000102040E0
:1029700080402010050303060002F800F804070752
:102980000601008040201020408005070706000057
:1029900070880810200020050707060000708808CE
:1029A00068A8A870050707060000708888F888885E
:1029B00088050707060000F08888F08888F005077A
:1029C0000706000070888080808870050707060071
:1029D00000F08888888888F0050707060000F880DE
:1029E00080F08080F8050707060000F88080F080FE
:1029F0008080050707060000708880B88888700509
:102A00000707060000888888F88888880107070675
:102A100002008080808080808005070706000038E3
:102A20001010101090600507070600008890A0C0E5
:102A3000A09088050707060000808080808080F8CD
:102A400005070706000088D8A88888888805070732
:102A50000600008888C8A89888880507070600002F
:102A600070888888888870050707060000F08888C5
:102A7000F080808005070706000070888888A8908D
:102A800068050707060000F08888F0A09088050711
:102A900007060000788080700808F0050707060028
:102AA00000F8202020202020050707060000888845
:102AB00088888888700507070600008888888888C5
:102AC00050200507070600008888888888A85005D8
:102AD00007070600008888502050888805070706E9
:102AE000000088888850202020050707060000F88D
:102AF0000810204080F8030707060100E08080806E
:102B00008080E005050506000180402010080307CD
:102B100007060100E02020202020E0050303060036
:102B200004205088050101060000F8020202060296
:102B300005804005050506000070087888780507BF
:102B4000070600008080B0C88888F00505050600EB
:102B500000708080887005070706000008086898E4
:102B60008888780505050600007088F880700507DC
:102B7000070600003048E0404040400506060600D9
:102B8000FF7088887808700507070600008080B00D
:102B9000C88888880107070602008000808080803E
:102BA000800308080601FF200020202020A0400408
:102BB0000707060000808090A0C0A09003070706CA
:102BC0000100C04040404040E0050505060000D03F
:102BD000A8A8A8A8050505060000B0C8888888052B
:102BE000050506000070888888700506060600FF47
:102BF000F08888F080800506060600FF78888878CF
:102C00000808050505060000B0C880808005050598
:102C100006000070807008F00407070600004040BE
:102C2000E040404030050505060000888888986827
:102C30000505050600008888885020050505060062
:102C4000008888A8A8500505050600008850205077
:102C5000880506060600FF8888887808700505053F
:102C6000060000F8102040F8030707060100204086
:102C7000408040402001070706020080808080805D
:102C80008080030707060100804040204040800507
:102C9000020206000268900000000600000000002A
:102CA0000600000000000600000000000600000012
:102CB0000000060000000000060000000000060002
:102CC00000000000060000000000060000000000F8
:102CD00006000000000006000000000006000000E2
:102CE00000000600000000000600000000000600D2
:102CF00000000000060000000000060000000000C8
:102D000006000000000006000000000006000000B1
:102D100000000600000000000600000000000600A1
:102D20000000000006000000000006000000000097
:102D30000600000000000600000000000600000081
:102D40000000060000000000060000000000060071
:102D50000000000006000000000006000000000067
:102D60000600000107070602008000808080808046
:102D70000507070600002070A8A0A8702005070717
:102D8000060000304040E04050A805050506000060
:102D90008870507088050707060000885020F820CA
:102DA000F8200107070602008080800080808005EF
:102DB00008080600003048205050209060030101B0
:102DC000060107A0050707060000F888B8B8B8880C
:102DD000F8050707060001700878887800F80505EF
:102DE000050600012850A05028050303060001F83D
:102DF00008080202020602064080050707060000D6
:102E0000F888A88898A8F8050101060006F80404C7
:102E1000040600036090906005070706000020206C
:102E2000F8202000F804050506000360902040F01B
:102E3000030505060003E020E020E002020206028E
:102E40000640800508080600FF8888888898E88082
:102E5000800507070600007898987818181802026D
:102E600002060202C0C00202020602FF4080030501
:102E70000506000340C04040E0050707060001705A
:102E80008888887000F8050505060001A0502850C4
:102E9000A00507070600008890A858B8080805078D
:102EA000070600008890B8489820380508080600F2
:102EB00000C040C048D838080805070706000020B1
:102EC000002040808870050808060000402000703F
:102ED00088F888880508080600001020007088F827
:102EE00088880508080600002050007088F8888847
:102EF0000508080600006890007088F888880508B2
:102F0000080600005000708888F8888805080806C0
:102F100000002050207088F8888805070706000008
:102F20003860A0B8E0A0B80508080600FF708880E7
:102F30008088702060050808060000402000F880A6
:102F4000F080F8050808060000081000F880F080FE
:102F5000F8050808060000205000F880F080F80509
:102F600007070600005000F880F080F80308080604
:102F70000100804000E0404040E0030808060100F6
:102F8000204000E0404040E003080806010040A067
:102F900000E0404040E0030707060100A000E040D9
:102FA0004040E0050707060000704848E8484870C0
:102FB00005080806000068900088C8A898880508D9
:102FC0000806000040207088888888700508080678
:102FD00000001020708888888870050808060000A6
:102FE00020500070888888700508080600006890E6
:102FF00000708888887005080806000050007088F6
:1030000088888870050505060001885020508805CD
:1030100008080600FF1070A8A8A8A87040050808B6
:103020000600004020888888888870050808060007
:10303000001020888888888870050808060000200D
:1030400050008888888870050808060000500088AD
:10305000888888887005080806000010208850209D
:103060002020200509090600FFC040704848704034
:1030700040E00408080601FF609090A09090E08076
:1030800005080806000040200070087888780508C8
:1030900008060000102000700878887805080806E7
:1030A00000002050007008788878050808060000A5
:1030B00068900070087888780507070600005000BF
:1030C00070087888780508080600002050207008ED
:1030D000788878050606060000D02878A0A8500554
:1030E00006060600FF70808870206005080806004C
:1030F000004020007088F880700508080600001065
:1031000020007088F8807005080806000020500034
:103110007088F8807005070706000050007088F876
:10312000807003080806010080400040C04040E075
:1031300003080806010020400040C04040E00308AA
:103140000806010040A00040C04040E00307070619
:103150000100A00040C04040E0050707060000A0B5
:1031600040A010788870050808060000689000B03C
:10317000C8888888050808060000402000708888F4
:103180008870050808060000102000708888887084
:10319000050808060000205000708888887005081F
:1031A0000806000068900070888888700507070688
:1031B0000000500070888888700505050600012011
:1031C00000F800200507070600FF1070A8A8A870E7
:1031D0004005080806000040200088888898680597
:1031E00008080600001020008888889868050808EC
:1031F00006000020500088888898680507070600A8
:1032000000500088888898680509090600FF10208A
:1032100000888888F808700407070601FFC040602E
:10322000506040E00508080600FF50008888887854
:10323000087024F4D43050C38E20C2A24017828B71
:103240007011127A910D816CD90AA861E108C758F2
:103250006607615143061E4B5D05C145A7041A412F
:103260001104093D9803713931034036DB0265339F
:103270009102D4305402802E1D02632CEE01752A77
:10328000C501B028A001102781018F2564012B24DE
:103290004B01E0223401AC211F018D200D01801F64
:1032A000FC00841EED00971DDF00B81CD200E61B59
:1032B000C600201BBC00641AB200B219A8000A198B
:1032C000A0006A189900D117910040178B00B5161D
:1032D000840031167E00B31579003A157300C714C7
:1032E0006F0058146A00EE136600881363002513FC
:1032F0005E00C7125B006C12570015125400C1111A
:10330000510070114F0021114B00D61049008D1053
:1033100047004610440002104200C00F4000800FDA
:103320003E00420F3C00060F3B00CB0E3800930ED0
:1033300037005C0E3500270E3400F30D3200C10D4E
:103340003100900D3000600D2E00320D2D00050D66
:103350002C00D90C2B00AE0C2900850C29005C0C2C
:103360002700350C27000E0C2600E80B2400C40BA8
:103370002400A00B23007D0B23005A0B2100390BE6
:103380002100180B2000F80A1F00D90A1E00BB0AF2
:103390001E009D0A1D00800A1D00630A1C00470ACA
:1033A0001B002C0A1B00110A1A00F7091A00DD097C
:1033B0001900C4091900AB091900920917007B090B
:1033C0001800630917004C09160036091600200979
:1033D00016000A091500F5081500E0081400CC08CD
:1033E0001400B8081400A4081400900813007D0805
:1033F00012006B0813005808120046081200340827
:103400001100230811001208110001081100F00733
:103410001000E0071000D0071000C0071000B00730
:103420000F00A107100091070E0083070F0074071B
:103430000F0065070E0057070E0049070E003B07F7
:103440000D002E070E0020070D0013070D000607C4
:103450000D00F9060C00ED060D00E0060C00D40688
:103460000C00C8060C00BC060C00B0060C00A4063C
:103470000B0099060C008D060B0082060B007706E8
:103480000B006C060B0061060A0057060B004C0689
:103490000A0042060A0038060A002E060A00240620
:1034A0000A001A060A001006090007060A00FD05B0
:1034B0000900F4050900EB050900E2050900D9053A
:1034C0000900D0050900C7050900BE050900B505BA
:1034D0000800AD050800A50509009C050800940535
:1034E00008008C050800840508007C0508007405A8
:1034F00008006C050700650508005D050700560516
:1035000008004E050700470507004005080038057C
:103510000700310507002A050700230507001C05E1
:103520000600160507000F0507000805060002053E
:103530000700FB040600F5040700EE040600E8049B
:103540000600E2040700DB040600D5040600CF04F1
:103550000600C9040600C3040600BD040600B70443
:103560000600B1040500AC040600A6040600A00491
:1035700005009B04060095040500900406008A04DB
:10358000050085040500800406007A040500750422
:103590000500700405006B04050066040500610465
:1035A00005005C04050057040500520405004D04A5
:1035B000050048040500430405003E0404003A04E5
:1035C000050035040500300404002C040500270420
:1035D0000400230405001E0404001A040400160459
:1035E0000500110404000D0404000904050004048E
:1035F000040000040400FC030400F8030400F403C6
:103600000400F0030400EC030400E8030400E403F6
:103610000400E0030400DC030400D8030400D40326
:103620000400D0030400CC030400C8030300C50356
:10363000030024F404D9201BC40C5C0E9804C409B4
:103640005F0265077101F405F900FB04B30048044B
:103650008700C10369005803550003034500BE02FB
:103660003A008402310053022A0029022500040294
:103670002000E4011C00C8011900AF0117009801E7
:103680001400840113007101100061011000510148
:103690000E0043010D0036010B002B010B00200131
:1036A0000B00150109000C01090003010800FB00D3
:1036B0000800F3000800EB000700E4000600DE004D
:1036C0000600D8000600D2000600CC000500C700A6
:1036D0000500C2000500BD000400B9000400B500EB
:1036E0000400B1000400AD000400A9000400A5001E
:1036F0000300A20003009F0004009B000300980049
:1037000003009500020093000300900003008D0069
:1037100002008B0003008800020086000200840083
:103720000300810002007F0002007D0002007B0098
:1037300002007900020077000100760002007400A8
:10374000020072000100710002006F0002006D00B3
:1037500001006C0002006A000100690002006700BD
:1037600001006600010065000100640002006200C3
:10377000010061000100600001005F0002005D00C7
:1037800001005C0001005B0001005A0001005900CB
:1037900001005800010057000100560001005500CB
:1037A00001005400010053000000530001005200CA
:1037B000010051000100500001004F0001004E00C7
:1037C00000004E0001004D0001004C0001004B00C4
:1037D00000004B0001004A000100490001004800C0
:1037E00000004800010047000100460000004600BC
:1037F00001004500000045000100440001004300B5
:1038000000004300010042000000420001004100AE
:10381000000041000100400001003F0000003F00A7
:1038200001003E0000003E0001003D0000003D00A0
:1038300001003C0000003C0000003C0001003B0097
:1038400000003B0001003A0000003A00010039008E
:103850000000390001003800000038000000380086
:10386000010037000000370001003600000036007C
:103870000000360001003500000035000000350072
:103880000100340000003400000034000100330067
:10389000000033000000330001003200000032005D
:1038A0000000320001003100000031000000310052
:1038B00001003000000030000000300001002F0047
:1038C00000002F0000002F0000002F0001002E003C
:1038D00000002E0000002E0001002D0000002D0031
:1038E00000002D0000002D0001002C0000002C0025
:1038F00000002C0000002C0001002B0000002B0019
:1039000000002B0000002B0001002A0000002A000C
:1039100000002A0000002A00010029000000290000
:1039200000002900000029000000290001002800F3
:1039300000002800000028000000280000002800E7
:1039400001002700000027000000270000002700DA
:1039500000002700010026000000260000002600CD
:1039600000002600000026000100250000002500C0
:1039700000002500000025000000250000002500B3
:1039800001002400000024000000240000002400A6
:103990000000240001002300000023000000230099
:1039A000000023000000230000002300000023008B
:1039B000010022000000220000002200000022007E
:1039C0000000220000002200010021000000210070
:1039D0000000210000002100000021000000210063
:1039E0000000210001002000000020000000200055
:1039F0000000200000002000000020000000200047
:103A00000000200001001F0000001F0000001F0038
:103A100000001F0000001F0000001F0000001F002A
:103A200001001E0000001E0000001E0000001E001D
:103A300000004D383420582059205A20450041209C
:103A40006D617820450041206D617820450041205E
:103A50006D617820450041206D6178205A00412039
:103A60006D6178205A0041206D6178205A00412014
:103A70006D617820590041206D6178205900412006
:103A80006D617820590041206D61782058004120F7
:103A90006D617820580041206D61782058004120E8
:103AA0004C65657266616872740041204C65657290
:103AB00066616872740041205265747261637400BB
:103AC0004120526574726163740041004100426597
:103AD000776567756E6700562045204A65726B00F2
:103AE000562045204A65726B00562045204A657273
:103AF0006B0056205A204A65726B0056205A204AA5
:103B000065726B00562059204A65726B0056205929
:103B1000204A65726B00562059204A65726B005628
:103B20002058204A65726B00562058204A65726BF7
:103B300000562058204A65726B00426577656775AC
:103B40006E6700452053746570732F6D6D004520BE
:103B500053746570732F6D6D005A205374657073C4
:103B60002F6D6D005A2053746570732F6D6D005961
:103B70002053746570732F6D6D00592053746570F8
:103B8000732F6D6D00582053746570732F6D6D0029
:103B9000582053746570732F6D6D004265776567AB
:103BA000756E670053746570732F6D6D004A657292
:103BB0006B0042657363686C65756E6967756E67E7
:103BC00000476573636877696E6469676B656974DC
:103BD000005A205665727361747A005A20566572D5
:103BE0007361747A0045696E7374656C6C756E6789
:103BF000656E004C6164656E206D6D004C6164659E
:103C00006E206D6D004C6164656E206D6D00456EBB
:103C1000746C6164656E206D6D00456E746C6164DA
:103C2000656E206D6D00456E746C6164656E206D0F
:103C30006D00442046696C2E00442046696C2E00BD
:103C40004175730045696E004520696E206D6DC237
:103C5000B300416476616E63652046616B746F7278
:103C600000416476616E63652046616B746F72001B
:103C700045696E7374656C6C756E67656E00436143
:103C80006E6E6F7420656E74657220737562646900
:103C9000723A2000022E2E0048617570746D656EB8
:103CA000C3BC0000476573616D74204578747275FC
:103CB00064696572743A2000256C642E25696D0074
:103CC000004CC3A46E677374657220447275636B95
:103CD0006A6F623A200000476573616D7465204425
:103CE0007275636B7A6569743A20004265656E642B
:103CF00065746520447275636B653A20004765738F
:103D0000616D746520447275636B653A20004D6186
:103D1000782054656D703A20313230004D696E2044
:103D200054656D703A203500544265643A455043FD
:103D30004F53203130304B004D61782054656D7009
:103D40003A20323630004D696E2054656D703A204D
:103D5000350054303A20505431303020556C74695D
:103D60004D42004E65747A7465696C3A2047656E01
:103D7000657269630050726F746F6B6F6C6C3A2080
:103D8000312E3000426175643A20323530303030A7
:103D900000556C74696D616B657220322E7800423B
:103DA000696C696E65617265204E6976656C6C2E12
:103DB0000045787472756465723A203100687474D5
:103DC000703A2F2F6D61726C696E66772E6F726715
:103DD000004475706C696361746F72203600323014
:103DE00031382D30312D3230006275676669782D9B
:103DF000312E312E78004D61726C696E00447275FF
:103E0000636B65722053746174697374696B0054D9
:103E10006865726D6973746F72656E00426F61726E
:103E20006420496E666F00447275636B6572204949
:103E30006E666F0048617570746D656EC3BC004D31
:103E400036303020423020542564004D3730312048
:103E5000542564004D373032203B2564004D373007
:103E600032205425640046696C616D656E7420775C
:103E700065636873656C6E00566F7277C3A4726D6C
:103E8000656E2041425300566F7277C3A4726D6510
:103E90006E20504C410046696C616D656E742077F0
:103EA00065636873656C6E00445255434B20504106
:103EB0005553494552540046494C414D454E5420B6
:103EC000454E544C4144454E0046494C414D454EAB
:103ED00054204C4144454E004D3330332055312061
:103EE0004525692053256900566F72772E2041427F
:103EF000532045696E73742E00566F72772E2050D2
:103F00004C412045696E73742E0050494420417520
:103F1000746F74756E6500504944204175746F74F8
:103F2000756E6500504944204400504944204400C7
:103F300050494420490050494420490050494420F8
:103F40005000504944205000082046616B746F7245
:103F500000082046616B746F720008206D61780064
:103F600008206D61780008206D61780008206D6977
:103F70006E0008206D696E0008206D696E00417545
:103F8000730045696E004175746F54656D70004C27
:103F9000C3BC66746572004CC3BC66746572004233
:103FA00065747400426574740044C3BC7365004456
:103FB000C3BC73650045696E7374656C6C756E6720
:103FC000656E004B6F6E6669672E2073706569635E
:103FD0006865726E004265747400426574740044D2
:103FE000C3BC73650044C3BC7365004CC3BC66743A
:103FF0006572004CC3BC667465720054656D706573
:1040000072617475720056206D696E204C65657220
:1040100066616872740056206D696E204C65657229
:1040200066616872740056206D696E204C65657219
:1040300066616872740056206D696E0056206D6965
:104040006E0056206D696E0056206D617820450027
:1040500056206D617820450056206D61782045001E
:1040600056206D6178205A0056206D6178205A00E4
:1040700056206D6178205A0056206D6178205900D5
:1040800056206D617820590056206D6178205900C6
:1040900056206D617820580056206D6178205800B8
:1040A00056206D61782058004265776567756E67A8
:1040B0000020746F6F206C6F6E6720657874727566
:1040C00073696F6E2070726576656E7465640A0040
:1040D00020636F6C6420657874727573696F6E20ED
:1040E00070726576656E7465640A00FFE0FFD1AF9B
:1040F000FF32FFD0FFFEFFE0FFD1AEFFD0FFFEFF9B
:10410000E0FFD11000FFFEFFD0FFE0FFC1FFD1AE06
:10411000D580A83FD300408D142002A1C8DA1281B7
:10412000CFD9F1DB402EA4A6AFFFD0FFFE000000E8
:1041300000300E0100C00E0A00500F1400D00F1EF8
:104140000060102800E010320070113C00F01146B1
:10415000007012500000135A008013640000146EA7
:1041600000901478001015820090158C001016969F
:10417000009016A0001017AA009017B4001018BEE7
:10418000009018C8001019D2009019DC00101AE62F
:1041900000801AF000001BFA00801B0401F01B0EC7
:1041A00001701C1801F01C2201601D2C01E01D365D
:1041B00001501E4001D01E4A01401F5401B01F5E35
:1041C0000130206801A020720110217C019021861D
:1041D00001002290016026F401902A5802802EBC32
:1041E0000250322003E03584035039E803803C4C10
:1041F000044531200820C39C42455253434852494C
:104200005454454E0042455454200820C39C424516
:104210005253434852495454454E004D4158544519
:104220004D5020747269676765726564004531207E
:104230000820554E54455253434852495454454E14
:104240000042455454200820554E5445525343488B
:1042500052495454454E004D494E54454D502074DA
:10426000726967676572656400202F002042403ADA
:104270000020403A007C3C3E5E2B3D3F2F5B5D3B87
:104280002C2A225C0000002100240027002A002D97
:10429000003000330001010000040107010A0100A1
:1042A000002200250028002B002E003100340002DF
:1042B000010000050108010B010000200023002679
:1042C0000029002C002F003200000100000301062D
:1042D000010901050505050705080808080202028D
:1042E000020A0A0808040404040101010101010191
:1042F000010303030303030303040707070C0C0C68
:104300000C0C0C0C0C02020202060606060606063F
:10431000060B0B0B0B0B0B0B0B01021020200808DC
:104320001020401020408002010201080402010117
:104330000204081020408080402010080402018000
:104340000402018040201008040201080402010157
:104350000204081020408001020408102040800060
:10436000000A0B02090C0D0E0807030401000000EF
:10437000000000000000000000000000000000003D
:1043800000000000000000000000001211100000FA
:10439000000000000000000000000000000000001D
:1043A00000000000000220643A0020693A002070FA
:1043B0003A0043290A0061626C656420286D696EC9
:1043C0002074656D702000436F6C64206578747292
:1043D000756465732061726520004B64200023645E
:1043E0006566696E652044454641554C545F004BF7
:1043F00069200023646566696E6520444546415521
:104400004C545F004B70200023646566696E652024
:1044100044454641554C545F005049442041757411
:104420006F74756E652066696E69736865642120B6
:1044300050757420746865206C617374204B702C07
:10444000204B6920616E64204B6420636F6E73742F
:10445000616E74732066726F6D2062656C6F772079
:10446000696E746F20436F6E6669677572617469F7
:104470006F6E2E680A00504944204175746F747540
:104480006E65206661696C6564212074696D656F75
:1044900075740A0045312008204E49434854204590
:1044A00052524549434854004245545408204E490D
:1044B0004348542045525245494348540054686586
:1044C000726D616C2052756E6177617900453120A3
:1044D0004845495A454E204645484C474553434870
:1044E0004C4147454E004265642068656174696EC1
:1044F00067206661696C65640048656174696E6710
:10450000206661696C656400504944204175746F90
:1045100074756E65206661696C6564212054656DF3
:10452000706572617475726520746F6F2068696759
:10453000680A00204B643A2000204B693A20002092
:104540004B703A20000A20436C61737369632050FA
:104550004944200A002054753A2000204B753A2027
:1045600000206D61783A2000206D696E3A200020AD
:10457000643A200020626961733A20005049442067
:104580004175746F74756E65206661696C65642130
:1045900020426164206578747275646572206E755E
:1045A0006D6265720A00504944204175746F7475DC
:1045B0006E652073746172740A004175730A004657
:1045C00061646520486569676874200042656420FD
:1045D0004C6576656C696E6720004661696C656440
:1045E00020746F20656E61626C6520426564204CAA
:1045F0006576656C696E670A003A200050726F62DA
:1046000065205A204F6666736574003F5A206F75A7
:1046100074206F662072616E676520282D3230200D
:10462000746F203230290A0043616E6E6F74206F00
:1046300070656E2073756264697220006563686FCF
:104640003A0045312008204E4943485420455252F3
:104650004549434854004245545408204E49434874
:104660005420455252454943485400546865726D80
:10467000616C2052756E61776179004D3630303A49
:10468000205A75206B616C7400486F74656E6420ED
:10469000746F6F20636F6C640A00496E7365727487
:1046A0002066696C616D656E7420616E6420707245
:1046B00065737320627574746F6E0A00507265734F
:1046C0007320627574746F6E20746F2068656174F6
:1046D000206E6F7A7A6C650A00496E736572742079
:1046E00066696C616D656E7420616E6420707265C0
:1046F000737320627574746F6E20286F72204D3151
:104700003038290A00496E736572742066696C61DD
:104710006D656E7420616E642070726573732062C3
:104720007574746F6E20286F72204D313038290AED
:10473000003F4B2076616C7565206F7574206F6645
:104740002072616E67652028302D3130292E0A00D5
:10475000416476616E6365204B3D00436173652063
:104760006C696768743A200043617365206C6967FF
:1047700068743A206F66660A00580059005A00456E
:1047800078747275646572200020302C31206D6D54
:104790000020312C30206D6D0031302C30206D6DBB
:1047A000004265776567656E00457874727564656B
:1047B0007220005A0059005800457874727564657B
:1047C0007220005A0059005800566F726265726577
:1047D0006974756E67005765726B7365696E737483
:1047E000656C6C756E67656E0045696E7374656C9B
:1047F0006C756E67656E005374616E646172647788
:1048000065727465206C6164656E004B6F6E6669DD
:10481000672E206C6164656E005765726B73656905
:104820006E7374656C6C756E67656E004B6F6E664B
:1048300069672E2073706569636865726E00424C0B
:10484000546F756368004D6F746F72737472C3B682
:104850006D650046696C616D656E740042657765D3
:1048600067756E670054656D70657261747572006E
:1048700048617570746D656EC3BC004D3234004D77
:10488000323320257300556E6B6E6F776E20636F29
:104890006D6D616E643A202200486F74656E64200D
:1048A000746F6F20636F6C640A000000484300005F
:1048B000484300002A4300004842000048420000EC
:1048C000804000000000FFFFFF50726F62696E675A
:1048D0002067657363686569746572740A00507255
:1048E0006F62696E67206765736368656974657276
:1048F0007400205A3A200020593A20004265642072
:10490000583A20006265640A002C2073797374653C
:104910006D2073746F7070656421204865617465E3
:10492000725F49443A200042656420686561746999
:104930006E67206661696C65640048656174696EC4
:1049400067206661696C6564004531204845495AB5
:10495000454E204645484C47455343484C41474502
:104960004E0048656174696E67206661696C6564B4
:104970000070012C0190012701B0012201C0011D2E
:1049800001F00118011002130130020E016002094A
:104990000190020401C002FF000003FA004003F589
:1049A000008003F000D003EB002004E6007004E177
:1049B00000E004DC004005D700C005D2004006CD71
:1049C00000D006C8008007C3003008BE00F008B958
:1049D00000C009B400B00AAF00B00BAA00D00CA50B
:1049E00000000EA000500F9B00C0109600501291C6
:1049F0000000148C00C0158700B0178200B0197D2C
:104A000000D01B7800001E730040206E00902269C9
:104A100000F024640040275F0090295A00E02B55E5
:104A200000102E500020304B0010324600E0334181
:104A30000090353C001037370070383200A0392D17
:104A400000B03A2800A03B2300603C1E00103D1936
:104A500000903D1400103E0F00703E0A00C03E055D
:104A600000003F0000403FFBFF803FF6FFC03FF1EA
:104A7000FF526573656E643A20006F6B0000F200B0
:104A8000DC0011241FBECFEFD1E2DEBFCDBF00E0BE
:104A90000CBF13E0A0E0B2E0ECECF4E902E00BBFE5
:104AA00002C007900D92AC3CB107D9F727E1ACECFE
:104AB000B3E001C01D92AA33B207E1F715E2C0E4EA
:104AC000D5E200E006C021970109802FFE010F9476
:104AD000C449CF33D10780E00807A9F70F94873383
:104AE0000D94554A0C9400002F923F924F925F9282
:104AF0006F927F928F929F92AF92BF92CF92DF92EE
:104B0000EF92FF920F931F93CF93DF93CDB7DEB752
:104B1000C258D1090FB6F894DEBF0FBECDBF21E059
:104B200020939204809162168D3411F40C94DF2F3F
:104B3000843511F40C94203E873411F00C94623EBD
:104B400080916016909161168C31910509F4B6C67A
:104B50009CF4843091053CF482309105B4F597FFC4
:104B60002DC00C94DB2F8430910509F438C64B9787
:104B700009F474C60C94DB2F8A32910511F40C945D
:104B8000862E4CF48D31910509F49CC64E9709F49C
:104B9000E9C70C94DB2F8B35910511F40C94612F30
:104BA0008C35910511F40C94652F8A35910511F01F
:104BB0000C94DB2F1092D2030C94643E8091570228
:104BC00081110C94693E0C94643E2091570222237B
:104BD00011F40C94643E11E0029709F010E00E9479
:104BE000714D82E50E94AD4C882309F45CC10E949E
:104BF0002F4C6B017C0140909A1550909B15609052
:104C00009C1570909D1520919E1530919F15409197
:104C1000A0155091A1152B962CAF3DAF4EAF5FAFB5
:104C20002B9780917A1590917B15A0917C15B0916E
:104C30007D152F968CAF9DAFAEAFBFAF2F97209154
:104C40007E1530917F1540918015509181156396A6
:104C50002CAF3DAF4EAF5FAF639720E030E0A901CE
:104C6000C701B6010F945F42882309F49EC5A301D2
:104C700092012F966CAD7DAD8EAD9FAD2F970F94A9
:104C80005F42811111C02B962CAD3DAD4EAD5FAD95
:104C90002B9763966CAD7DAD8EAD9FAD63970F94F2
:104CA0005F42882309F481C520E030E0A901C701F3
:104CB000B6010F945F42881F8827881F18130BC006
:104CC00080E090E0A0E8BFE3A3968CAF9DAFAEAFCD
:104CD000BFAFA3970AC020E030E040E85FEBA396A7
:104CE0002CAF3DAF4EAF5FAFA397A30192012F96BC
:104CF0006CAD7DAD8EAD9FAD2F970F94C8466B9672
:104D00006CAF7DAF8EAF9FAF6B972B962CAD3DAD4B
:104D10004EAD5FAD2B9763966CAD7DAD8EAD9FAD07
:104D200063970F94C8466F966CAF7DAF8EAF9FAF01
:104D30006F976B962CAD3DAD4EAD5FAD6B97CA01D5
:104D4000B9010F94C4424B015C016F962CAD3DAD8F
:104D50004EAD5FAD6F97CA01B9010F94C4429B017C
:104D6000AC01C501B4010F94C9460F94344967964C
:104D70006CAF7DAF8EAF9FAF679720E030E040E033
:104D80005FE30F94C4424B015C01A7019601C70188
:104D9000B6010F94C4426B017C01A5019401C501C9
:104DA000B4010F94C4429B01AC01C701B6010F943A
:104DB000C8460F9434499B01AC01A3966CAD7DAD00
:104DC0008EAD9FADA3970F94C4424B015C012F960B
:104DD0002CAD3DAD4EAD5FAD2F97C301B2010F9429
:104DE000C94620E030E040E05FE30F94C4426B012D
:104DF0007C016F966CAD7DAD8EAD9FAD6F97905879
:104E000067962CAD3DAD4EAD5FAD67970F94A5474E
:104E10009B01AC01C501B4010F94C4429B01AC01DC
:104E2000C701B6010F94C946A30192010F94C84669
:104E30006B017C0163962CAD3DAD4EAD5FAD6397CC
:104E40002B966CAD7DAD8EAD9FAD2B970F94C94663
:104E500020E030E040E05FE30F94C4422B013C01CE
:104E600067962CAD3DAD4EAD5FAD67976B966CAD63
:104E70007DAD8EAD9FAD6B970F94A5479B01AC01A7
:104E8000C501B4010F94C4429B01AC01C301B2013E
:104E90000F94C9462B962CAD3DAD4EAD5FAD2B9713
:104EA0000F94C84614C089E40E94AD4C882329F0B1
:104EB0000E942F4C6B017C0103C0C12CD12C7601C8
:104EC0008AE40E94AD4C8823F9F00E942F4C63962F
:104ED0006CAF7DAF8EAF9FAF639720E030E0A9014C
:104EE000C701B6010F945F4281111EC020E030E07F
:104EF000A90163966CAD7DAD8EAD9FAD63970F94A8
:104F00005F42811111C051C420E030E0A901C70106
:104F1000B6010F945F42882309F447C463961CAE20
:104F20001DAE1EAE1FAE6397D701C601B0582B96BB
:104F30008CAF9DAFAEAFBFAF2B9763962CAD3DADA1
:104F40004EAD5FAD639750582F962CAF3DAF4EAF2F
:104F50005FAF2F979C01AD01BC01CD010F94C442FE
:104F60004B015C012F962CAD3DAD4EAD5FAD2F9743
:104F7000CA01B9010F94C4429B01AC01C501B4013F
:104F80000F94C9460F943449AF966CAF7DAF8EAF86
:104F90009FAFAF9780919A1590919B15A0919C150A
:104FA000B0919D1567968CAF9DAFAEAFBFAF6797C1
:104FB000A7019601BC01CD010F94C946A3966CAF21
:104FC0007DAF8EAF9FAFA39720919E1530919F1517
:104FD0004091A0155091A1156B962CAF3DAF4EAFEF
:104FE0005FAF6B9763962CAD3DAD4EAD5FAD6397F4
:104FF0006B966CAD7DAD8EAD9FAD6B970F94C94632
:10500000E3966CAF7DAF8EAF9FAFE39780917A153B
:1050100090917B15A0917C15B0917D156F968CAF0A
:105020009DAFAEAFBFAF6F97A3962CAD3DAD4EAD6C
:105030005FADA397BC01CD010F94C8466B017C0105
:1050400020917E1530917F154091801550918115EA
:10505000A7962CAF3DAF4EAF5FAFA797E3962CADB1
:105060003DAD4EAD5FADE397A7966CAD7DAD8EAD1A
:105070009FADA7970F94C8464B015C018091A21584
:105080009091A315A091A415B091A515AB968CAFE6
:105090009DAFAEAFBFAFAB979C01AD0160918215E4
:1050A0007091831580918415909185150F94C84651
:1050B0002B013C0120918615309187154091881570
:1050C00050918915EB962CAF3DAF4EAF5FAFEB978C
:1050D0008091A6159091A715A091A815B091A9153A
:1050E000E7968CAF9DAFAEAFBFAFE797A701960134
:1050F0002B966CAD7DAD8EAD9FAD2B970F94C442BA
:10510000EF966CAF7DAF8EAF9FAFEF97A501940187
:105110002F966CAD7DAD8EAD9FAD2F970F94C44291
:105120009B01AC01EF966CAD7DAD8EAD9FADEF9761
:105130000F94C946EF966CAF7DAF8EAF9FAFEF97E0
:10514000A50194012B966CAD7DAD8EAD9FAD2B97D7
:105150000F94C4424B015C01A70196012F966CADE0
:105160007DAD8EAD9FAD2F970F94C4429B01AC01D6
:10517000C501B4010F94C846EF962CAD3DAD4EADC0
:105180005FADEF970F943C476B017C0120E030E06E
:10519000A9010F945F4287FF0AC02BED3FE049EC65
:1051A00050E4C701B6010F94C9466B017C0111237D
:1051B00051F02BED3FE049EC50E4C701B6010F94EC
:1051C000C8466B017C0120E030E0A901C701B601AF
:1051D0000F945F42811128C06F962CAD3DAD4EAD4E
:1051E0005FAD6F9767966CAD7DAD8EAD9FAD6797E8
:1051F0000F945F42811118C0A7962CAD3DAD4EAD06
:105200005FADA7976B966CAD7DAD8EAD9FAD6B9787
:105210000F945F42811108C00BEDC02E0FE0D02E1D
:1052200009ECE02E00E4F02EA7019601AF966CADDC
:105230007DAD8EAD9FADAF970F94C4424B015C0125
:1052400020E030E0A901C301B2010F945F4288233E
:10525000C9F0A5019401C501B4010F94C4424B01EA
:105260005C01A3019201C301B2010F94C4429B01EE
:10527000AC01C501B4010F94C9460F9434494B01E8
:105280005C010DC020E030E0A901C501B4010F941C
:10529000EF4887FF04C0B7FAB094B7F8B0942FE690
:1052A00032E143E85AE3C501B4010F945F4287FF3E
:1052B00002C00C94643EC501B4010F943E480F94A3
:1052C00012481B01672B19F422242394312CB101BD
:1052D00080E090E00F9463424B015C019B01AC01C4
:1052E000C701B6010F94A54767966CAF7DAF8EAF2F
:1052F0009FAF6797A5019401C301B2010F94A54721
:10530000AF966CAF7DAF8EAF9FAFAF97E7962CADEA
:105310003DAD4EAD5FADE797EB966CAD7DAD8EAD1F
:105320009FADEB970F94C846A50194010F94A54734
:10533000EB966CAF7DAF8EAF9FAFEB9767962CADC2
:105340003DAD4EAD5FAD6797CA01B9010F94C44240
:1053500020E030E040E05FE30F94C4429B01AC01E9
:1053600060E070E080E89FE30F94C846A7966CAFBA
:105370007DAF8EAF9FAFA797AB962CAD3DAD4EAD39
:105380005FADAB9729873A874B875C87E7968CADF3
:105390009DADAEADBFADE7978D879E87AF87B88BCC
:1053A00060910B0270910C02072E000C880B990B78
:1053B0000F9465422091530230915402409155025E
:1053C000509156020F94C4422AE037ED43E25CE369
:1053D0000F94C4426BAF7CAF8DAF9EAF0E94B4FA06
:1053E0009B01AC0128533F4F4F4F5F4FAB962CAF03
:1053F0003DAF4EAF5FAFAB9728964FAC289729963D
:105400005FAC29972A966FAC2A972B967FAC2B9787
:1054100041E050E06D965FAF4EAF6D9759E16896F1
:105420005FAF68976D96EEADFFAD6D97E215F30532
:1054300009F467C10F94E5250E94B4FADC01CB01A1
:10544000AB962CAD3DAD4EAD5FADAB97821B930BD4
:10545000A40BB50BB7FD11C00E94B4FA9B01AC01BF
:1054600028533F4F4F4F5F4FAB962CAF3DAF4EAFE2
:105470005FAFAB9780E00E943E6868963FAD68974B
:10548000315068963FAF6897332309F44BC0A79615
:105490002CAD3DAD4EAD5FADA7972F966CAD7DADFC
:1054A0008EAD9FAD2F970F94C4426B017C01679620
:1054B0002CAD3DAD4EAD5FAD6797B201C3010F940A
:1054C000C442A70196010F94C9467B018C01A7969F
:1054D0002CAD3DAD4EAD5FADA797B201C3010F94AA
:1054E000C4424B015C0167962CAD3DAD4EAD5FAD46
:1054F00067972F966CAD7DAD8EAD9FAD2F970F94B6
:10550000C4429B01AC01C501B4010F94C8462B01F4
:105510003C01C701D8012F968CAF9DAFAEAFBFAF96
:105520002F9761C06D964EAD5FAD6D97BA0180E06B
:1055300090E00F94634267962CAD3DAD4EAD5FADEC
:1055400067970F94C4424B015C010F94A2476B0113
:105550007C01C501B4010F942A494B015C01A701EC
:1055600096012B966CAD7DAD8EAD9FAD2B970F94B4
:10557000C4422B013C01A501940163966CAD7DAD45
:105580008EAD9FAD63970F94C4429B01AC01C301E4
:10559000B2010F94C9462B013C01A50194012B9641
:1055A0006CAD7DAD8EAD9FAD2B970F94C4424B017A
:1055B0005C01A701960163966CAD7DAD8EAD9FAD8C
:1055C00063970F94C4429B01AC01C501B4010F94D1
:1055D000C8462F966CAF7DAF8EAF9FAF2F9759E126
:1055E00068965FAF68979201A301A3966CAD7DADFD
:1055F0008EAD9FADA3970F94C94669837A838B8341
:105600009C832F962CAD3DAD4EAD5FAD2F97E396AD
:105610006CAD7DAD8EAD9FADE3970F94C9466D83A4
:105620007E838F839887AF962CAD3DAD4EAD5FAD39
:10563000AF9769857A858B859C850F94C946698764
:105640007A878B879C87EB962CAD3DAD4EAD5FADD9
:10565000EB976D857E858F8598890F94C9466D87F8
:105660007E878F87988B80912202882321F0CE013C
:1056700001960E948966E090701523961CAE1DAEBF
:105680001EAE1FAE239789819A81AB81BC8188A30E
:1056900099A3AAA3BBA38D819E81AF81B8858CA35A
:1056A0009DA3AEA3BFA389859A85AB85BC8588A73A
:1056B00099A7AAA7BBA7AE01485D5F4FBE016C5D6D
:1056C0007F4FCE0180960E9455E6CE01CF966C01A9
:1056D0008E01055C1F4F9E01235F3F4FAE01485D69
:1056E0005F4FBE016C5D7F4F4F970F94AA1D6D9663
:1056F000AEADBFAD6D9711966D96BFAFAEAF6D9766
:1057000091CEE090701527961CAE1DAE1EAE1FAE5A
:10571000279780917A1590917B15A0917C15B09177
:105720007D1588A399A3AAA3BBA380917E15909110
:105730007F15A0918015B09181158CA39DA3AEA378
:10574000BFA38091821590918315A0918415B0918B
:10575000851588A799A7AAA7BBA7AE01485D5F4F8B
:10576000BE016C5D7F4FCE0180960E9455E69E0182
:105770002D5B3F4F69018E01055C1F4F26E835E127
:10578000AE01485D5F4FBE016C5D7F4FCE018096DC
:105790000F94AA1D80E1EAE7F5E1AAE9B5E10190DD
:1057A0000D928A95E1F70C94643EE7E4F6E184916A
:1057B0008F010F5F1F4F882321F00E94794FF8015E
:1057C000F6CFE5E6F2E084918F010F5F1F4F88234B
:1057D00011F40C94643E0E94794FF801F4CF80E5F7
:1057E0000E94AD4C882329F00E94EF4B6B017C0195
:1057F00003C0C12CD12C760183E50E94AD4C8823D7
:1058000061F00E942F4C20E030E04AE754E40F940E
:10581000C4420F9412486B017C010E94F0E5809114
:105820009C10811105C060E08BE792E00E940A9A0B
:105830000E94B4FAC60ED71EE81EF91E0E94B4FAE2
:10584000DC01CB018C199D09AE09BF09B7FD02C06F
:105850000C94643E80E00E943E68F0CF0E94DA9192
:1058600081110C94643E80E090E0A0E2B1E4898371
:105870009A83AB83BC8380E090E0AEE3B3E48D8396
:105880009E83AF83B88780E090E0A0EAB1E4898787
:105890009A87AB87BC8780E50E94AD4C882319F0BE
:1058A0000E94FF4B01C060E068A3BE016F5F7F4FA5
:1058B000CE0180960F94CD2E0C94643E0F949B16CF
:1058C0000C94643E0E94DA9181110C94643E3090F5
:1058D0007D0987E50E94664C882309F438C18091D0
:1058E000720990917309892BD1F4E7E4F6E1849170
:1058F0008F010F5F1F4F882321F00E94794FF8011D
:10590000F6CFE6EFF2E084918F010F5F1F4F8823FF
:1059100011F40C94643E0E94794FF801F4CF8AE5AB
:105920000E94AD4C882379F00E942F4C2091921553
:105930003091931540919415509195150F94C84648
:105940006B017C0108C0C090A215D090A315E09017
:10595000A415F090A51520E030E040E251ECC7011D
:10596000B6010F94EF4887FF03C0E7E4F6E10BC0F0
:1059700020E030E040E251E4C701B6010F945F42FD
:1059800018169CF318C084918F010F5F1F4F882356
:1059900021F00E94794FF801F6CFE9EEF2E0849110
:1059A0008F010F5F1F4F882311F40C94643E0E94F7
:1059B000794FF801F4CF88E50E94AD4C882319F0A7
:1059C0000E942F4C04C060E070E080EC9FE72091C3
:1059D0008A1530918B1540918C1550918D150F942F
:1059E000C8462B013C0189E50E94AD4C882319F083
:1059F0000E942F4C04C060E070E080EC9FE7209193
:105A00008E1530918F1540919015509191150F94EE
:105A1000C8464B015C0189E40E94AD4C882319F013
:105A20000E940F4C01C08FEF182F8AE40E94AD4CEA
:105A3000882319F00E940F4C01C08FEF082FA3019B
:105A40009201C301B2010F947549811154C0A5019F
:105A50009401C501B4010F94754981114CC0609146
:105A6000BF047091C004072E000C880B990B0F9493
:105A700065429B01AC01C301B2010F94C84620E00E
:105A800030E0A9010F94C94620E030E0A9010F944D
:105A9000A5470F940D48162F6091C1047091C20460
:105AA000072E000C880B990B0F9465429B01AC01EB
:105AB000C501B4010F94C84620E030E0A9010F945D
:105AC000C94620E030E0A9010F94A5470F940D4886
:105AD00017FD06C013300CF012E067FF06C00AC0C5
